:020000040800F2
:1000000090070020CD0100083F1A00083D150008A8
:100010003D1A0008D3020008571E00080000000027
:100020000000000000000000000000009D1A000811
:10003000D502000800000000411A00089F1A0008BD
:10004000E7010008E7010008E7010008E7010008F0
:10005000E7010008E7010008E7010008E7010008E0
:10006000E7010008E7010008E7010008E7010008D0
:10007000E7010008E7010008E7010008E7010008C0
:10008000E7010008E7010008E7010008E7010008B0
:10009000E7010008E7010008E7010008E7010008A0
:1000A000E7010008051B0008E7010008E701000858
:1000B000111B0008E7010008E7010008E70100083C
:1000C000E7010008E7010008E7010008E701000870
:1000D000E7010008E7010008E7010008E701000860
:1000E000E7010008E7010008E7010008E701000850
:1000F000E7010008E7010008E7010008E701000840
:10010000E7010008E7010008E7010008E70100082F
:10011000E7010008E7010008E7010008E70100081F
:10012000E7010008E7010008E7010008E70100080F
:1001300000F002F800F03AF80AA090E8000C8244BF
:100140008344AAF10107DA4501D100F02FF8AFF29C
:10015000090EBAE80F0013F0010F18BFFB1A43F0A5
:1001600001031847CC240000EC240000103A24BFFF
:1001700078C878C1FAD8520724BF30C830C144BF0C
:1001800004680C607047000000230024002500264E
:10019000103A28BF78C1FBD8520728BF30C148BFEA
:1001A0000B6070471FB51FBD10B510BD00F058F8AB
:1001B0001146FFF7F7FF01F05FFE00F076F803B499
:1001C000FFF7F2FF03BC00F07DF80000094880470C
:1001D00009480047FEE7FEE7FEE7FEE7FEE7FEE729
:1001E000FEE7FEE7FEE7FEE704480549054A064B41
:1001F00070470000011B0008310100089001002039
:100200009007002090030020900300204FF0000290
:1002100000B5134694469646203922BFA0E80C50FC
:10022000A0E80C50B1F12001BFF4F7AF090728BFD7
:10023000A0E80C5048BF0CC05DF804EB890028BF53
:1002400040F8042B08BF704748BF20F8022B11F07C
:10025000804F18BF00F8012B7047704770477047F8
:10026000754600F02BF8AE4605006946534620F06F
:100270000700854618B020B5FFF7B6FFBDE820405F
:100280004FF000064FF000074FF000084FF0000B52
:1002900021F00701AC46ACE8C009ACE8C009ACE805
:1002A000C009ACE8C0098D46704710B50446AFF3ED
:1002B00000802046BDE81040FFF781BF004870472E
:1002C0003001002001491820ABBEFEE726000200E5
:1002D0007047FEE7704772B6FEE7000010B50022D7
:1002E0004FF48071064800F035F9002204210548DA
:1002F00000F030F901F018FABDE8104001F044BAFE
:10030000000801400014014070B5044600F028F9CF
:100310000546601C02D004480078044400F020F92F
:10032000401BA042FAD370BD1800002010B504464F
:1003300000F04AFA0849B0FBF1F000F011FC601E31
:10034000FFF7E2FF00F040FA4FF47A71B0FBF1F0F2
:10035000BDE8104000F004BC40420F002DE9F84F0A
:10036000DFF8C891002409F1040A0AF1040B2346BE
:100370000F270BF1040ED1E00125A54006EA050286
:10038000AA4276D1DFF8A8C14E68A6EB0C086645F4
:100390002BD00DDC032E34D005DC36B3012E19D062
:1003A000022E2FD11BE0112E16D0122E2AD119E0C9
:1003B000B8F5881F19D006DCB8F5803F15D0B8F520
:1003C000801F1FD111E0B8F5001F0ED0B8F5041F33
:1003D00018D10AE0CB6815E0CB681B1D12E0CB6892
:1003E00008330FE0CB680C330CE08B682BB1012B8A
:1003F0004FF0080303D0456104E0042302E00561E7
:1004000000E00023FF2A01D8064601E000F10406BF
:100410004FEA840501D9A5F12005D6F8008007FA36
:1004200005FC28EA0C0803FA05F548EA0508C6F8B1
:1004300000804D68ED0070D53E4DAE6946F0010676
:10044000AE61AD6924F0030605F0010500953A4D53
:1004500006EB050CDCF80850A607360F07FA06F87D
:1004600025EA0805DFF8D480404503D14FF00008A5
:1004700025E052E0DFF8C880404502D14FF0010886
:100480001DE0DFF8C080404502D14FF0020816E0C1
:10049000DFF8B480404502D14FF003080FE0DFF8E9
:1004A000AC80404502D14FF0040808E0DFF8A0809E
:1004B000404502D14FF0050801E04FF0060808FA68
:1004C00006F848EA0508CCF808804D68D9F80060BD
:1004D000ED034D4601D5164300E096432E604D686E
:1004E000DAF80060AD03554601D5164300E09643A7
:1004F0002E604D68DBF80060ED025D4601D51643C5
:1005000000E096432E604D68DEF80060AD0275464F
:1005100001D5164300E096432E60641C0A68164617
:10052000E2407FF429AFBDE8F88F000000040140ED
:1005300000001110001002400000014000080140BE
:10054000000C01400010014000140140001801405F
:10055000001C01400AB1016170470904FBE700007B
:100560000148806870470000180000200248816838
:10057000027811448160704718000020074810B5C8
:10058000016841F010010160032000F075F80F20B0
:1005900000F006F800F024F8002010BD0020024012
:1005A00070B50D4D04464FF47A712878B1FBF0F028
:1005B0000A490968B1FBF0F000F0D2FA48B9102CF2
:1005C00007D200222146501E00F036F800206C6051
:1005D00070BD012070BD0000180000202400002024
:1005E0000C4808B5816941F001018161816901F020
:1005F00001010091C16941F08051C161C06900F001
:10060000805000900448416821F0E06141F0806131
:10061000416008BD0010024000000140002809DBD5
:1006200000F01F02012191404009800000F1E0200C
:10063000C0F8001170470000F0B40E4B1B680C4668
:10064000C3F30223C3F10705042D00D90425191DA6
:10065000072901D2002300E0DB1E012606FA05F17E
:10066000491E214099409E40761E16403143F0BC01
:1006700001F0F2BB0CED00E0064900F0070208684B
:100680004FF6FF03184040EA0220034A1043086077
:10069000704700000CED00E00000FA052DE9F0477E
:1006A0000F46050061D0434E306800F00700B842A5
:1006B00009D2306820F0070038433060306800F01D
:1006C0000700B84251D128683B4C810712D540073A
:1006D00003D5606840F4E06060602878000703D5C7
:1006E000606840F4605060606068A96820F0F000C5
:1006F000084360602878C00728D06868012810D0B7
:100700002168022810D0890700292EDA616821F0BB
:10071000030101436160FFF723FF804641F28839FE
:100720000DE021688903EFE78901EDE7FFF718FF86
:10073000A0EB0801494502D90320BDE8F0876068B5
:10074000696800F00C00B0EB810FEFD1306800F069
:100750000700B8420BD9306820F0070038433060FA
:10076000306800F00700B84201D00120E5E72878A2
:10077000400705D56068E96820F4E06008436060E0
:100780002878000706D56068296920F4605040EA9F
:10079000C100606000F01EF86168084AC1F30311EF
:1007A000515CC8400649086006480068FFF7F8FE3B
:1007B0000020C2E700200240001002401E26000870
:1007C000240000201C000020014800687047000041
:1007D0002400002012A185B00FC98DE80F0014A0DD
:1007E000144A006804905168134801F00C03042B6C
:1007F00010D0082B0ED1C1F38343C9031DF80300A9
:100800000AD5516804AAC1F34041515C0A4A5043D9
:10081000B0FBF1F005B0704708494843FAE7000023
:1008200002030405060708090A0B0C0D0E0F101031
:10083000010200000010024000127A0000093D0091
:100840002DE9F84F040070D02078C04DC00749D082
:100850006868C0F38100012807D06868C0F3810090
:10086000022809D16868C00306D52868800339D5F5
:1008700060680028E7D035E06068B0F5803F0BD0B5
:1008800010B1B0F5A02F11D0286820F48030286076
:10089000286820F4802002E0286840F48030286036
:1008A000606890B1FFF75CFE06460AE0286840F4F5
:1008B00080202860F0E700BFFFF752FE801B64280D
:1008C00073D828688003F7D50CE0FFF749FE064689
:1008D00005E000BFFFF744FE801B6428F0D82868BD
:1008E0008003F7D420789A4E80074FF001094FF02B
:1008F000000839D5686810F00C0F07D06868C0F39D
:100900008100022809D16868C00306D428688007DE
:1009100014D52069012808D110E02069B0B1C6F8CB
:100920000090FFF71DFE074605E00AE1FFF718FEFD
:10093000C01B0228C4D828688007F7D528686169D9
:1009400020F0F80040EAC10028600DE0C6F8008001
:10095000FFF706FE074604E0FFF702FEC01B022871
:1009600023D828688007F7D4207800072CD5794849
:10097000A169D9B1C0F80090FFF7F2FD074604E085
:10098000FFF7EEFDC01B02280FD8686A8007F7D575
:1009900071484FF4FA510068B0FBF1F0009000BFCD
:1009A0000098411E0091FAD20EE080E0C0F800806D
:1009B000FFF7D6FD074604E0FFF7D2FDC01B022873
:1009C00075D8686A8007F7D42078400760D5E86951
:1009D0000027C00008D4E86940F08050E861E86969
:1009E000012700F0805000905C480168C90513D4CD
:1009F0000168834641F480710160FFF7B1FD8246D2
:100A000006E000BFFFF7ACFDA0EB0A0064284ED85B
:100A1000DBF80000C005F5D5E06801280AD008B170
:100A2000052813D0286A20F001002862286A20F0E7
:100A3000040002E0286A40F001002862E06841F208
:100A4000883B98B1FFF78CFD82460BE0286A40F0A6
:100A500004002862EEE700BFFFF782FDA0EB0A0169
:100A600059455AD8286A8007F6D50CE0FFF778FD7B
:100A7000824605E0FFF774FDA0EB0A0159454CD80A
:100A8000286A8007F6D41FB1E86920F08050E86139
:100A9000E06988B36968C1F38101022944D0022862
:100AA000C6F8608004D0FFF75BFD044638E034E010
:100AB000FFF756FD074604E0FFF752FDC01B022872
:100AC0002BD828688001F7D4206AB0F5803F05D183
:100AD0006868A16820F4003008436860D4E9080120
:100AE0000843696821F4741108436860C6F860908F
:100AF000FFF736FD044606E025E000BFFFF730FDB6
:100B0000001B022809D828688001F7D51BE000BF28
:100B1000FFF726FD001B022802D90320BDE8F88F4D
:100B200028688001F4D40EE00128F7D06868226AB2
:100B300000F48031914204D1616A00F4701088425F
:100B400001D00120EAE70020E8E7000000100240A1
:100B50000000424280044242240000200070004015
:100B600010B5401EB0F1807F01D3012010BD4FF0C1
:100B7000E02460610F21601701F06EF90020A06190
:100B800007202061002010BD7047704710B590F815
:100B90003C20012A22D0012280F83C20CA688C68BF
:100BA00022F4407222434C6822F4806222430C6893
:100BB00022F4006222430C6922F4805222434C69E1
:100BC00022F400522243C969002322F480420A43DE
:100BD00001684A6480F83C30002010BD022010BD3E
:100BE00070B590F83C20012A2CD0012480F83C40BC
:100BF000022280F83D2003685A689D6822F0700642
:100C00000A6832435A60104B02689A420ED00F4B6A
:100C10009A420BD0B2F1804F08D00D4B9A4205D0CA
:100C20000C4B9A4202D00C4B9A4204D1496825F0F1
:100C300080031943916080F83D40002180F83C100A
:100C4000084670BD022070BD002C014000340140F8
:100C50000004004000080040000C004010B50400F3
:100C600003D094F83D0010B107E0012010BD002032
:100C700084F83C00204600F01FF8022084F83D0074
:100C8000211D206800F04AFF012084F8460084F806
:100C90003E0084F83F0084F8400084F8410084F866
:100CA000420084F8430084F8440084F8450084F846
:100CB0003D00002010BD000008B500680B498842C7
:100CC00012D10B48816941F4006181618069002281
:100CD00000F40060009011461920FFF7ADFCBDE85C
:100CE00008401920FFF79ABC08BD0000002C014005
:100CF0000010024090F83D10012901D001207047FA
:100D0000022180F83D100168CA6842F00102CA6001
:100D100000680E4988420ED00D4988420BD0B0F1D0
:100D2000804F08D00B49884205D00B49884202D039
:100D30000A49884204D1816801F00701062903D0DD
:100D4000016841F00101016000207047002C014062
:100D5000003401400004004000080040000C004046
:100D600070B5044690F83C00012817D0012584F89E
:100D70003C50022084F83D002068826822F077020F
:100D800022F47F4282600868502830D00DDC202891
:100D90004DD005DC98B310283BD148E0022070BD4F
:100DA000302844D0402834D139E0602828D0702839
:100DB00006D0B0F5805F2CD0B0F5005F29D10AE0F5
:100DC000CB68D1E90121206800F0FBFE2068816832
:100DD00041F0770109E0CB68D1E90121206800F0FA
:100DE000F0FE2068816841F48041816011E0CA68AA
:100DF0004968206800F0BAFF5021206807E016E03B
:100E0000CA684968206800F0F9FF6021206800F096
:100E1000E2FE84F83D50002084F83C0070BDCA68B2
:100E20004968206800F0A2FF40212068EFE72268AF
:100E300001461046EBE7000010B50446014607489E
:100E400000F0B4FB05482146283000F0AFFB2146F6
:100E50000248BDE81040503000F0A8BB2800002038
:100E60002DE9F041054690F83C000C46012836D0AB
:100E7000012085F83C008AB3042A42D02868082A59
:100E800051D0D4E90023E168066A26F48056066250
:100E9000C669076A26F4407646EA03234FF6FF76D2
:100EA00006EA013123F4704319434FF4005627F446
:100EB000005306EA02321A43C16102622868C1691E
:100EC00021F44061C1612868C169A26841EA022138
:100ED000C161002085F83C00BDE8F08101E00220FE
:100EE000FAE7D4E90012E368286800F051FF2868A7
:100EF000816921F00C01816128688169A268114330
:100F00000FE0D4E90012E368286800F089FF286840
:100F1000816921F44061816128688169A26841EAA0
:100F200002218161D5E7D4E90027267B016A21F4FB
:100F300080710162C169036A21F00301394321F024
:100F4000F00731074FF4007647EA116123F400738C
:100F500006EA02221A43C16102622868C16921F0CF
:100F60000C01C1612868C169A2681143B0E710B5DE
:100F7000040003D094F83D0010B107E0012010BD3B
:100F8000002084F83C00204600F01EF8022084F87F
:100F90003D00211D206800F0C1FD012084F84600BD
:100FA00084F83E0084F83F0084F8400084F8410053
:100FB00084F8420084F8430084F8440084F8450033
:100FC00084F83D00002010BD10B586B000240094C8
:100FD0000194029403940068B0F1804F37D11D480A
:100FE000C16941F00101C161C16901F001010491D0
:100FF000816941F004018161816901F0040104917A
:10100000816941F0080181618069694600F008004A
:1010100004900C2000901048FFF7A0F90820CDE9BB
:10102000000469460D480294FFF798F90C49486896
:1010300020F4407040F0E06040F48070486000228E
:1010400011461C20FFF7F8FA1C20FFF7E7FA06B05C
:1010500010BD00000010024000080140000C0140DB
:101060000000014010B5044651B104290DD00829F3
:1010700010D094F8410094F84520012811D10EE0D9
:1010800094F83E0094F84220F7E794F83F0094F873
:101090004320F2E794F8400094F84420EDE7012A59
:1010A00001D0012010BD022051B1042911D008291E
:1010B00018D084F8410084F845000C291BD13CE08D
:1010C00084F83E0084F842002068C26842F00202C0
:1010D00010E084F83F0084F843002068C26842F0C2
:1010E000040207E084F8400084F844002068C268E5
:1010F00042F00802C2600122206800F055FD11494B
:10110000206888420ED0104988420BD0B0F1804F41
:1011100008D00E49884205D00D49884202D00D49B9
:10112000884204D1816801F00701062903D00168D3
:1011300041F001010160002010BD2068C26842F04A
:101140001002D7E7002C01400034014000040040A9
:1011500000080040000C004070B5044600680169BA
:101160004FF00005C943890715D4C168C9438907F1
:1011700011D4E91E01610120207720688069800771
:10118000204602D0FFF758FE04E000F0BFF82046EA
:1011900000F04EF9257720680169C943490717D443
:1011A000C168C943490713D46FF0040101610220EB
:1011B00020772068806910F4407F204602D0FFF736
:1011C0003BFE04E000F0A2F8204600F031F925775C
:1011D00020680169C943090716D4C168C9430907D2
:1011E00012D46FF008010161042020772068C069E3
:1011F0008007204602D0FFF71FFE04E000F086F8CB
:10120000204600F015F9257720680169C943C90611
:1012100017D4C168C943C90613D46FF01001016126
:10122000082020772068C06910F4407F204602D053
:10123000FFF702FE04E000F069F8204600F0F8F83D
:10124000257720680169C943C90708D1C168C94326
:10125000C90704D1891E0161204600F045F92068C4
:101260000169C943090609D4C168C943090605D4FF
:101270006FF0800101612046FFF786FC206801695C
:10128000C943490609D4C168C943490605D46FF06A
:1012900040010161204600F050F920680169C9430E
:1012A00089060BD4C168C943890607D46FF02001B1
:1012B00001612046BDE87040FFF767BC70BD0000CB
:1012C00000B585B000210091019102910391006861
:1012D0000B49884212D10B48816941F004018161B8
:1012E0008069694600F0040004904FF4606000904B
:1012F0000220019003900448FFF730F805B000BDCC
:10130000002C01400010024000080140704770B5F9
:10131000044690F83C000D4601280AD0012084F8CC
:101320003C0042B1042A18D0082A2AD00C2A4DD1F8
:1013300039E0022070BD206800F056FC2068816909
:1013400041F0080181612068816921F00401816117
:10135000206881692A69114311E0206800F074FC5B
:101360002068816941F4006181612068816921F40C
:1013700080618161206881692A6941EA0221816175
:1013800024E0206800F096FC2068C16941F0080163
:10139000C1612068C16921F00401C1612068C1698F
:1013A0002A69114311E0206800F0B8FC2068C16987
:1013B00041F40061C1612068C16921F48061C161AB
:1013C0002068C1692A6941EA0221C161002084F8CC
:1013D0003C0070BD10B5040003D094F83D0010B17E
:1013E00007E0012010BD002084F83C00204600F0FA
:1013F0001EF8022084F83D00211D206800F08EFBBD
:10140000012084F8460084F83E0084F83F0084F808
:10141000400084F8410084F8420084F8430084F8D6
:10142000440084F8450084F83D00002010BD70475A
:101430007047000010B50446022249B104290ED0BD
:10144000082913D094F84100012816D0012010BDBE
:1014500094F83E000128F9D184F83E200FE094F87A
:101460003F000128F2D184F83F2008E094F84000C2
:101470000128EBD184F8402001E084F841200122CA
:10148000206800F091FB13492068134A884201D07C
:10149000904203D1436C43F4004343642068884284
:1014A0000DD090420BD0B0F1804F08D00B4988424C
:1014B00005D00B49884202D00A49884204D181688C
:1014C00001F00701062903D0016841F00101016024
:1014D000002010BD002C01400034014000040040F9
:1014E00000080040000C004010B5044601460748C3
:1014F00000F0ECF805482146283000F0E7F82146D6
:101500000248BDE81040503000F0E0B8280000204C
:101510000246002041B1042909D008290AD00C292B
:1015200001D11068006C70471068406B70471068FC
:10153000806B70471068C06B70477047FEE770B5EE
:101540000D4649684160E968816014002968C0E976
:10155000071406D0042C06D0082C06D00C2C06D07C
:1015600008E0012104E0022102E0042100E008215A
:1015700080F824102846FFF7BDFB21462846BDE829
:101580007040FFF76FBD70B515460C460122294625
:101590002046FEF7DFFF1420FEF7C8FE294620464E
:1015A000BDE870400022FEF7D5BF000070B50446CC
:1015B0000D460868E169884239D1287F94F82410E3
:1015C000884234D12078002690B301282FD12846B4
:1015D000216AFFF79DFF6188A26801FB020020617C
:1015E000E168401A606100F08BFE0022344B00F08D
:1015F0002FFD0022334B00F097FE721E00F0C9FF52
:101600000022314B00F090FE00F0E8FCA061267053
:10161000206A90B304284BD008282868016A4CD06F
:1016200021F400510162206A2868016A016270BDDC
:10163000FFE72846216AFFF76BFFE060206AB8B138
:1016400004281BD008282868016A1CD021F4005106
:101650000162206AD0B104281DD008282868016AD8
:101660001ED041F400510162668001202070DEE747
:101670002868016A21F00A01EAE714E02868016A93
:1016800021F0A001E4E721F40071E1E72868016A94
:1016900041F00201E7E72868016A41F02001E2E732
:1016A00041F40071DFE72868016A21F00A01B9E717
:1016B0002868016A21F0A001B4E721F40071B1E7C4
:1016C00080842E4100407540000059400968C2697D
:1016D000914202D14188491C4180704710B50022D7
:1016E0004FF480710648FEF735FF012204210548BA
:1016F000FEF730FF00F008F8BDE8104000F044B8F5
:10170000000801400014014010B5064C00222021C1
:101710002046FEF71FFF20460122BDE81040402171
:10172000FEF718BF000C014010B5064C0122202125
:101730002046FEF70FFF20460022BDE81040402162
:10174000FEF708BF000C014010B5064C0022202116
:101750002046FEF7FFFE20460022BDE81040402153
:10176000FEF7F8BE000C014010B5064C00228021A7
:101770002046FEF7EFFE20460122BDE81040110290
:10178000FEF7E8BE000C014010B5064C0122802196
:101790002046FEF7DFFE0022A1152046BDE81040DE
:1017A000FEF7D8BE000C014010B5064C0022802187
:1017B0002046FEF7CFFE0022A1152046BDE81040CE
:1017C000FEF7C8BE000C01402DE9F04786B00024AA
:1017D00037480094019402940394816941F02001F8
:1017E0008161816901F020010491816941F0040166
:1017F0008161816901F004010491816941F0100166
:101800008161816901F010010491816941F0080151
:1018100081618069DFF89C8000F00800049000225C
:1018200010214046FEF796FEDFF88C904FF4FA77D1
:10183000002239464846FEF78DFE0122110240463D
:10184000FEF788FEDFF874A0012204215046FEF75F
:1018500081FE4FF4887001250226CDE90005CDE90F
:10186000024669464046FEF779FD20208DE83100AA
:1018700069461348FEF772FD00970396CDE90154BF
:1018800069464846FEF76AFDE8038DE8310069467F
:101890004046FEF763FD0420CDE90005CDE9024690
:1018A00069465046FEF75AFD06B0BDE8F0870000D5
:1018B0000010024000080140000C014000140140EB
:1018C0000010014010B596B000240F9410941194AC
:1018D000129413941C2168461494FEF797FC20215F
:1018E00007A8FEF793FC31482F4901604721C0E962
:1018F000011440F2E731C0E903148021C0E9054139
:10190000FFF7ACF908B1FEF7E6FC4FF480500F90FA
:101910000FA92648FFF724FA08B1FEF7DCFC23489C
:10192000FFF758FD08B1FEF7D6FC139413A91F4822
:101930001494FFF755F908B1FEF7CDFC6020CDE90E
:101940000004029403940494059404226946174801
:101950000694FFF7DCFC08B1FEF7BDFC08226946DF
:101960001248FFF7D4FC08B1FEF7B5FC0C2269461B
:101970000E48FFF7CCFC08B1FEF7ADFC07940894C5
:1019800009944FF400500A94CDE90B4007A9074889
:101990000E94FFF7FBF808B1FEF79DFC0348FFF734
:1019A0008FFC16B010BD0000002C0140A0000020EC
:1019B00010B586B000242048059404940094019446
:1019C00002944FF08041039401604721C0E9011463
:1019D0004FF6FF71C0E903148461FFF7C8FA08B13C
:1019E000FEF779FC049404A913480594FFF7F8F86E
:1019F00008B1FEF770FC0120CDE9004002940422FA
:101A000069460D480394FFF72BFA08B1FEF763FC13
:101A1000082269460848FFF723FA08B1FEF75BFC85
:101A20000C2269460448FFF71BFA002801D0FEF794
:101A300052FC06B010BD0000E8000020FEE7FEE703
:101A40007047000010B5012211020748FEF782FD21
:101A5000002204210548FEF77DFDFFF765FEBDE885
:101A60001040FFF781BE0000000801400014014053
:101A700010B5FFF769FEFFF797FE01221102054836
:101A8000FEF768FD0122BDE8104004210248FEF780
:101A900061BD000000080140001401407047FEF7DE
:101AA00065BD30B58FB028216846FEF7AFFB142125
:101AB0000AA8FEF7ABFB01210804CDE900100024C1
:101AC000029402250491CDE907504FF4E0100990EB
:101AD0006846FEF7B5FE08B172B6FEE70F20CDE905
:101AE0000A054FF48060CDE90C4002210AA80E944B
:101AF000FEF7D4FD002801D072B6FEE70FB030BD6E
:101B0000704700000148FFF727BB0000A00000203D
:101B10000148FFF721BB0000E8000020F0B5026893
:101B20001C4B1D4D1D4E1E4F1E4C4FF0804C9842BD
:101B300009D0A04207D0604505D0A84203D0B042EA
:101B400001D0B84204D122F0700E4A6842EA0E0277
:101B5000984209D0A04207D0604505D0A84203D0E2
:101B6000B04201D0B84203D122F44075CA682A437A
:101B70004D6922F080022A4302608A68C2620A68C4
:101B80008262984201D0A04201D10969016301211A
:101B90004161F0BD002C01400004004000080040FD
:101BA000000C00400034014010B501F01F0301217A
:101BB000046A99408C430462016A9A4011430162AD
:101BC00010BD10B5846842EA032224F47F440A431E
:101BD0002243826010BD826822F070020A4342F004
:101BE0000701816070470000F0B5026A22F001022F
:101BF0000262036A42688469124E24F073050C681D
:101C00002C4323F002058B682B430D4DA84201D0D5
:101C1000B04205D123F00807CB683B4323F004030F
:101C2000A84201D0B04205D14D6922F4407215435B
:101C30008A692A4342608461496841630362F0BD56
:101C4000002C014000340140F0B5026A22F010027D
:101C50000262026A436884690D6824F4E64444EA37
:101C600005248D6822F0200242EA05120F4D104E25
:101C7000A84201D0B04206D1CF6822F0800242EAE9
:101C8000071222F04002A84201D0B04207D14D69AC
:101C900023F4406343EA85038D6943EA8503436087
:101CA0008461496881630262F0BD0000002C01403C
:101CB00000340140F0B5026A22F480720262026AC6
:101CC0004368C46922F4007224F073050C68124E54
:101CD0002C438D6842EA05220E4DA84201D0B04245
:101CE00006D1CF6822F4006242EA072222F4806221
:101CF000A84201D0B04207D14D6923F4405343EAD2
:101D000005138D6943EA05134360C4614968C163E3
:101D10000262F0BD002C01400034014030B5026A7F
:101D200022F480520262046A4268C3690D6823F497
:101D3000E64343EA05238D6824F4005444EA05345D
:101D4000084DA84202D0084DA84204D14D6922F4A2
:101D5000804242EA85124260C361496801640462BC
:101D600030BD0000002C01400034014010B5036A72
:101D7000046A24F001040462846924F0F00444EA53
:101D8000021423F00A020A438461026210BD0000BB
:101D900070B5046A24F0010404628469056A124E75
:101DA000B0420ED0114EB0420BD0B0F1804F08D0EF
:101DB0000F4EB04205D00F4EB04202D00E4EB04290
:101DC00003D124F00304144301E044F001041A0792
:101DD00024F0F00444EA126225F00A0301F00A013B
:101DE00019438261016270BD002C01400034014042
:101DF0000004004000080040000C004010B5036AD9
:101E000023F0100303628369046A23F4704343EAF6
:101E1000023224F0A00343EA01118261016210BD85
:101E200030B5046A24F0100404628469056A24F45D
:101E3000407444EA022222F470444FF6FF7202EA30
:101E400003322243A02425F0A00304EA0111194320
:101E50008261016230BDFEE70907090E002804DB3C
:101E600000F1E02080F80014704700F00F0000F14E
:101E7000E02080F8141D7047FEF780FBFFF711FE8D
:101E8000FFF7A2FCFFF71EFDFFF792FD0C221D4994
:101E90001D48FFF754FB1C4804221A492830FFF75D
:101EA0004EFB1948082217495030FFF748FB174CE2
:101EB000102221461448FFF766FB154D12481022E8
:101EC00029462830FFF75FFB0F480422294650308F
:101ED000FFF759FB04210F48FFF7ACFA08210D4822
:101EE000FFF7A8FA0C4EA515002229462046FEF75A
:101EF00031FB002204213046FEF72CFB00F00EF8E7
:101F0000F2E70000E800002028000020000801405F
:101F1000000C0140A0000020001401402D4810B525
:101F200002684FF47A7191630068C163FEF7D6F9D5
:101F3000294CA068FEF7E8F9FFF79AFD6069FEF703
:101F4000E3F9FFF7CBFB2069FEF7DEF9FFF790FD21
:101F50006069FEF7D9F9FEF7C1F9E068FEF7D4F938
:101F6000FFF786FD6069FEF7CFF9FFF7B7FB206941
:101F7000FEF7CAF9FFF77CFD6069FEF7C5F9FEF7C9
:101F8000ADF9A068FEF7C0F9FFF772FD6069FEF7D2
:101F9000BBF9FFF757FD2069FEF7B6F9FFF768FDBB
:101FA0006069FEF7B1F9FEF799F9E068FEF7ACF960
:101FB000FFF75EFD6069FEF7A7F9FFF743FD2069B3
:101FC000FEF7A2F9FFF754FD6069BDE81040FEF787
:101FD0009BB90000A00000200000002021F000427A
:101FE000A2F16052B2F5801F01F0004328BFD2F188
:101FF0007F6C0BD95FEA001C43EAC20242EB5070CF
:1020000018BF704728BF20F001007047B2F5801F4D
:10201000BCBF184670474FEA410C1CF5001F02D2A6
:10202000084600F07FBA70B500F028FA0000008979
:10203000FFF7F6BF4FF00040A0F5800070470000AA
:1020400002494FF0000000F072BA00BF0000F87FB4
:102050002DE9C04130B4DFF8A0C23CEA111418BF2A
:102060003CEA131400F0EC8081EA03051CEA111429
:1020700044EAD57418BF1CEA131500F0C780A4EB1E
:1020800005044FF0004545EAC12145EAC32341EA72
:10209000505143EA525304F17F74994204F50034DD
:1020A0004FEAC0204FEAC22208BF904200F09C8055
:1020B0004FEA13650FF24016765D4FEA134506FBB3
:1020C00005F7C7F1807706FB07F74FEAD737A7FB7D
:1020D00003687642C8F58038A7FB06CE38BFA8F162
:1020E000010807FB08E64FF0000EA6FB028CE6FB9A
:1020F00003CEDCF1000CCEF1004E38BFAEF1010E84
:10210000A6FB0C584FF000074FF00005E6FB0E87CA
:10211000A1FB08C6A0FB07CE16EB0E0645F1000595
:10212000E1FB076515F1E04E7EBFA4F580345FEA60
:1021300046066D4116F1800745F100054FEA172765
:102140004FEA066647EA0567A6F1DE46B6F1805F0C
:102150004FEA15251FD9384624F0010C05EBC47150
:10216000BCF1FE6F01EB0C1102D8F0BCBDE80081A0
:1021700024425CBF01F5801E9EEAC47F02D4F0BCFD
:10218000BDE80081244238D4F0BCA1F1C041BDE8D3
:10219000004100F0C1B94FEAD22242EA43524FEA6D
:1021A000D323A7FB02864FEAD02040EA415007FB29
:1021B00003661EEA0E0F4FEAD12105FB026658BFE7
:1021C000A6EB0056B6EB00564FEA520E4EEAC37E1F
:1021D00018EB0E0E56EB530EBDD518EB02085E4100
:1021E0007F1C55F10005B6E74FF480154FF000074E
:1021F0004FF000064FF00008ADE7F0BC4FF00000D4
:1022000001F1C04101F00041BDE8008111EA0C1F5D
:102210000CEA131500D00CE013EA0C1F00F0258027
:102220004FF00000F0BC81EA030101F00041BDE87D
:102230000081F0BCBDE8004181EA030100F06CB907
:10224000F0BCBDE8004170B500F018F9097EFC3E15
:1022500000F007B881EA03014FF0000001F00041EF
:10226000704781EA030100F057B9F0BCBDE80041B6
:102270004FF0000021497047FFFDFBF9F7F5F4F23C
:10228000F0EEEDEBE9E8E6E4E3E1E0DEDDDBDAD811
:10229000D7D5D4D3D1D0CFCDCCCBCAC8C7C6C5C46F
:1022A000C2C1C0BFBEBDBCBBBAB9B8B7B6B5B4B386
:1022B000B2B1B0AFAEADACABAAA9A8A8A7A6A5A471
:1022C000A3A3A2A1A09F9F9E9D9C9C9B9A99999835
:1022D0009797969595949393929191908F8F8E8ED8
:1022E0008D8C8C8B8B8A8989888887878685858465
:1022F00084838382828181800000FF070000F87F51
:10230000B0FA80F310FA03F10AD0C3F11D0303F50C
:1023100080634FEA41504FEA035202EBD1217047EC
:102320004FF0000070470000DFF848C170B51CEAAC
:10233000111E1EBF1CEA13159EEA0C0F95EA0C0F26
:1023400000F06F8081EA030423EA4C134EEAD47E46
:1023500021EA4C1141F4801143F48013AE44A1FBF7
:10236000024CA0FB0365AEF17F7E361955EB0C05E0
:10237000A1FB034C4CF10003A0FB021C16EB0C0666
:10238000654153F10003094218BF46F0010613F4FA
:10239000007F0BD14FEA03314FEA0530340341EAA5
:1023A000155140EA16506FF003020AE04FEAC321CC
:1023B0004FEAC520F40241EA555140EA56506FF009
:1023C000020202EB2E4201EB025585EACE710AD0E1
:1023D0005FEA440C18BF24F0004450F1000041F1C2
:1023E000000120EAD47040F2FE7C624500D270BD4C
:1023F000A84214BF4FF080444FF04044002E08BF65
:102400000024BEF1806FA8BFA1F1C041BDE87040BB
:1024100080F282804FF0000001F1C04101F00041E4
:1024200070479EEA0C0F0CEA131518BF95EA0C0FC3
:1024300006D04FF0000081EA030E0EF0004170BD9F
:1024400000F01CF88900013E00F007B800F009B860
:102450004FEA430C5FEA5C5C08D081EA030100F0BC
:102460005BB84FEA410C5FEA5C5CF6D14FF00000CC
:10247000014970470000FF070000F87F0EF1020ECF
:102480002EF0030E5EF8046B364205D4012A43EBAE
:10249000030515F5001F12D8012841EB010C1CF5AE
:1024A000001F0CD80ED14FEAD17C15F5001F0CEBA4
:1024B0004C0C0CF1020C08BF4CEBD37C04E04FF049
:1024C000080C01E04FEAD37C0CEB4C0526FA05F62C
:1024D00006F00706B6F1040C06D20EEB860CBDE83A
:1024E00070404CF0010C6047DFE80CF0090B020271
:1024F0004FF000414FF00000A1F5002170BD1946DA
:102500001046012851EB010418BFD4F5001484BF14
:10251000002001F0004170BD0808A0F500114FEA4D
:1025200031017047FF2141EAD050C00570470CF0DF
:102530000F03092B08BF082000F059800A2B0BD08D
:10254000082B18BF704708BF1CF0400F0AD04FF08F
:1025500000004FF0000170471CF0400F18BF4FF013
:10256000004070471CF0100F08D020F0704300F0BE
:102570007F4242EAD3014FEA4370704700F0604067
:1025800021F07F4242EA000201F07F4040EA72708F
:1025900070474FF0FF0C4CF4E06C1CEA11531CBF69
:1025A0009CEA030C9445C2BFDA4201EB025170472A
:1025B000002B0DD0BCF1000F0FD0002A01F000411C
:1025C000A4BF41F0E04141F07F614FF0000070474F
:1025D00001F000414FF00000704750EA01334FF026
:1025E0009B0C18BF4CF0806C7FF42AAD70471CF434
:1025F000801F11D01CF4E02F03D06FEACC314900CA
:1026000070474FF04050EFF3008222F0704242EAF0
:10261000000282F3008870474FF00000704700000E
:102620000000000000000102030406070809000082
:102630005026000800000020280000006C0100085F
:10264000782600082800002068070000880100089C
:10265000400100002C010000B80B0000E80300005E
:10266000E8030000F4010000010000001000000079
:08267000000000000024F4004A
:0400000508000131BD
:00000001FF
